:020000040800F2
:10000000E8040020C900000841170008D3150008C3
:1000100000000000000000000000000000000000E0
:10002000000000000000000000000000451700086C
:1000300000000000000000004317000847170008F8
:10004000DB00000800000000DB000008DB00000807
:10005000DB000008DB000008DB000008DB00000814
:1000600000000000DB000008DB000008DB000008E7
:10007000DB000008DB000008DB00000800000000D7
:10008000C51700080000000000000000DB000008A9
:1000900000000000DB000008DB000008DB000008B7
:1000A00000000000DB00000800000000DB0000088A
:1000B0000448854600F0CCF8004800473521000888
:1000C000C046C046E8040020044880470448004772
:1000D000FEE7FEE7FEE7FEE7FEE7FEE7C3170008E0
:1000E000B100000830B50B46014600202022012453
:1000F00009E00D46D5409D4205D31D469540491B5C
:100100002546954040191546521E002DF1DC30BDA4
:10011000F0B51FB40646002082B005464024019188
:1001200000901BE0019922460F46304600F05DF832
:10013000049A059B801A994110D31046194622460D
:1001400000F076F8361A8F410197224601200021EF
:10015000009F00F06DF838184D4100902046641E55
:100160000028DFDC019B00982946324607B0F0BD2D
:10017000F0B51FB486B00020009001900290069860
:10018000069980B204900798090C020400141143E8
:1001900007900027089D099806913E463C4603902B
:1001A0000398A9B20204000C039004982D0C154387
:1001B00048430021224600F03BF8C7197141103432
:1001C0000E46402CECDB3846029A00F031F8009ADB
:1001D000019B8018009059410298019110300290C3
:1001E0004028CCDB00980BB0F0BD10B5202A04DB12
:1001F0000846203AD040002110BD0B46D340D040E5
:100200002024A21A91400843194610BDD2B201E041
:100210000270401C491EFBD270470022F6E710B561
:1002200013460A4604461946FFF7F0FF204610BD64
:1002300010B5202A04DB0146203A9140002010BD71
:10024000914020239C1A0346E3401943904010BD7F
:10025000064C0125064E05E0E36807CC2B430C3C19
:1002600098471034B442F7D3FFF726FFE421000883
:100270000422000872B6FEE770B5044600F0EEF8FE
:100280000546601C02D004480078241800F0E6F807
:10029000401BA042FAD370BD04000020F8B5002333
:1002A00003240125BAE02E469E40B44632407CD05D
:1002B0000E79B607B60F012E01D0022E17D186682F
:1002C0002746B6465E00B74000967646BE43B64621
:1002D000CF68009EB74076463743876046686746DA
:1002E000BE430F79FF06FF0F9F40374347600E79EB
:1002F000F643B6070ED0C6682746B4465E00B6463B
:10030000B7406646BE43B4468F687646B7406646F9
:100310003743C7600E79B607B60F022E14D1DE0838
:10032000B60036180096366A5F07B446FE0E0F27F1
:10033000B646B7406646BE43B4460F697646B740F8
:1003400066463743009E376206682746B4465E001D
:10035000B646B7406646BE430F79B446BF07BF0FE7
:100360007646B7406646374307604E68B603B60F19
:1003700053D02D4FBE692E43BE61BE699F08F6075C
:10038000F60F2A4EBF00BE190096B6680F27B44676
:100390009E07360FB646B7406646BE430927FF069E
:1003A000B446B84202D1002710E036E0204FB842F0
:1003B00001D101270AE01F4FB84201D1022705E011
:1003C0001D4FB84201D1032700E005277646B7400C
:1003D00066463743009EB760184E36684F689643AE
:1003E000FF0300D51643154F3E607E684F68964365
:1003F000BF0300D51643114F7E60BE684F68964319
:10040000FF0200D516430D4FBE60FE684F6896434D
:10041000BF0200D51643094AD6605B1C0A6816461F
:10042000DE4000D03FE7F8BD001002400000014070
:100430000004004800080048000C00480004014087
:10044000426913460B401B0491430B438361704781
:10045000002A01D08161704781627047014880683D
:100460007047000004000020024881680278891863
:10047000816070470400002010B506480168102212
:1004800011430160032000F007F800F027F8002076
:1004900010BD00000020024070B504460D4D7D20C7
:1004A0002978C000FFF71EFE01460B480068FFF7E1
:1004B00019FE00F043FB002809D1042C07D20022CA
:1004C0002146401E00F02AF800206C6070BD01201B
:1004D00070BD0000040000201000002008B508488E
:1004E0008169012211438161816911400091C269D2
:1004F00001040A43C261C0690840009008BD0000C1
:1005000000100240002805DBC106C90E012088400A
:10051000014908607047000000E100E010B501F0FB
:10052000AFFC10BDF8B505460068354CC00352D588
:10053000E0690026C00007D4E16920040143E161BD
:10054000E1690140012600912E480168C90510D4D7
:100550000168821511430160FFF780FF074604E040
:10056000FFF77CFFC01B642824D826480068C0051C
:10057000F6D5206A03273F02384020D06968394009
:1005800081421CD0206A226AB843012109040A432F
:100590002262226A8A4322622062C0070FD0FFF7DC
:1005A0005DFF009008E0FFF759FF0099411A1648D7
:1005B000814201D90320F8BD206A8007F3D5206A63
:1005C0006968B84308432062002E04D0E169012025
:1005D00000078143E1612878C00705D0206BA96836
:1005E00080088000084320632878800605D5206BAA
:1005F00010218843E968084320630020F8BD00000B
:10060000001002400070004088130000F8B50F464B
:10061000060059D03A4D2868C007C00FB84209D229
:10062000286840084000384328602868C007C00F89
:10063000B84249D13068334C81070CD5400704D506
:10064000606807210902084360606068F021884300
:10065000B168084360603078C00726D07068012810
:100660000ED0216802280ED0890700292CDA616893
:100670008908890001436160FFF7F0FE00900DE0FA
:1006800021688903F1E78901EFE7FFF7E7FE0099A9
:10069000411A1D48814201D90320F8BD60680C2130
:1006A0000840716889008842EFD12868C007C00FF0
:1006B000B8420BD9286840084000384328602868B1
:1006C000C007C00FB84201D00120F8BD3078400704
:1006D00006D56068072109028843F1680843606015
:1006E00000F028F86168094A0906090F515CC84002
:1006F000074908600320FFF7CFFE0020F8BD000087
:10070000002002400010024088130000CC210008A5
:10071000100000200448054900684968044A49055A
:10072000490F515CC8407047100000200010024083
:10073000DC21000810B514A30FCB88B06C460FC4A1
:1007400015A30FCB0FC4184A51680C200B46034069
:100750001648042B16D0082B14D18B021B0F6C46A5
:10076000E45CD26A04AB1207120F9A5CC90305D588
:1007700000231946FFF7CCFC214601E020460C4936
:1007800001F066FB08B010BD020304050607080966
:100790000A0B0C0D0E0F10100102030405060708CA
:1007A000090A0B0C0D0E0F100010024000127A0007
:1007B00000093D00FEB5040070D02078DC4DC00774
:1007C0004AD068680007800F012807D068680007D2
:1007D000800F022809D16868C00306D52868800305
:1007E0003AD560680028E7D036E06168012914D066
:1007F00001208004002901D0052914D02A68012194
:1008000009048A432A6029688143296060680028B6
:1008100016D0FFF723FE06460EE0286801210904E2
:1008200008432860F2E7296801432960F5E7FFF7EC
:1008300015FE801B64286ED828688003F7D50BE06E
:10084000FFF70CFE064604E0FFF708FE801B642855
:10085000F1D828688003F7D4207801268007002883
:100860003CDA68680007800F07D068680007800FCF
:10087000022809D16868C00306D42868800716D505
:10088000E06801280AD112E0E0680028286816D044
:1008900030432860FFF7E2FD074605E043E1FFF73C
:1008A000DDFDC01B0228C6D828688007F7D5286858
:1008B000F82188432169C900084328600EE04008F8
:1008C00040002860FFF7CAFD074604E0FFF7C6FDB9
:1008D000C01B0228AFD828688007F7D4207800070B
:1008E00022D5E0690028686A0ED030436862FFF7BD
:1008F000B5FD074604E0FFF7B1FDC01B02289AD8FA
:10090000686A8007F7D50FE0400840006862FFF78B
:10091000A5FD074605E09DE0FFF7A0FDC01B0228EE
:1009200089D8686A8007F7D4207804274007002810
:1009300060DA00200190E869C00008D4E969B806CF
:100940000143E961E9690140012000910190794882
:100950000168C90511D40168821511430160FFF7D0
:100960007DFD009005E0FFF779FD0099401A6428AD
:1009700070D870480068C005F5D5A06801280AD075
:10098000002801D0052810D0286A400840002862BD
:10099000286AB84301E0286A30432862A06800282A
:1009A00012D0FFF75BFD00900AE0286A3843286206
:1009B000F1E7FFF753FD0099411A5F48814249D89A
:1009C000286A8007F5D50DE0FFF748FD009006E0A6
:1009D000FFF744FD0099411A574881423AD8286AE6
:1009E0008007F5D40198002804D0E96901200007A8
:1009F0008143E9612078C00635D5606901280CD0B3
:100A0000401D686B23D038436863686B4008400022
:100A10006863FFF723FD064622E0686B384368638E
:100A2000686B30436863FFF719FD064604E0FFF783
:100A300015FD801B02285BD8686B8007F7D5686BB3
:100A4000F8218843A169C900084368630BE0B843F3
:100A50006863F4E74CE0FFF701FD801B022847D8EC
:100A6000686B8007F7D4206A00285ED069680907A0
:100A7000890F022942D0012636060228286805D0AF
:100A8000B0432860FFF7EAFC044633E0B043286037
:100A9000FFF7E4FC074604E0FFF7E0FCC01B022878
:100AA00026D828688001F7D4E86AE16A00090001C5
:100AB0000843E862616AA06A084369683D2212043B
:100AC000914308436860286830432860FFF7C6FCFC
:100AD000044604E0FFF7C2FC001B022808D828687F
:100AE0008001F7D521E0FFF7B9FC001B022801D9EE
:100AF0000320FEBD28688001F5D416E00128F8D057
:100B00006868E96A01221204636A02409A420AD1C3
:100B10000907E26A090F914205D10F2189040840B3
:100B2000A16A884201D00120FEBD0020FEBD000068
:100B3000001002400070004088130000094910B501
:100B4000401E884201D9012010BD074C606103217D
:100B5000081F01F095F90020A06107202061002006
:100B600010BD0000FFFFFF0000E000E0704770478D
:100B7000F0B502462032137F012B1BD001261677D9
:100B80000223537705686B68AC687027BB430F6816
:100B90001F436F600068084B984202D0074B984291
:100BA00004D1802349689C4321438160567700200B
:100BB0001077F0BD0220F0BD002C01400004004081
:100BC00070B5040005D025462035687F002802D086
:100BD00006E0012070BD00202877204600F014F8C0
:100BE00002206877211D206800F0F4FD01204034C8
:100BF000A071A877E87720706070A070E070207115
:100C000060716877002070BD10B586B0044614216D
:100C10006846FFF702FB15492068884223D1144833
:100C2000C26902210A43C261C2690A40059243694E
:100C30000A041343436140690191104005908020EC
:100C40000090002003900120049002910920694641
:100C5000C006FFF723FB002202211020FFF75EFCF5
:100C60001020FFF74FFC06B010BD0000000400404C
:100C700000100240014620314A7F012A01D00120A4
:100C8000704702224A770268D36801210B43D36080
:100C90000068084A904202D0074A904204D1826814
:100CA0005207520F062A02D002680A43026000204F
:100CB00070470000002C014000040040F8B50546D4
:100CC00004462035287F0026012817D001202877E8
:100CD00002206877226890687727FF23B8431B02B9
:100CE000984390600868502838D00EDC20284FD0F8
:100CF00006DC00284CD010281ED149E00220F8BDA7
:100D0000302845D0402817D13AE060282ED07028EE
:100D100019D001221203801A0FD090420CD1CB6857
:100D20004A688968206800F09EFD20688168012279
:100D300092031143816000E00126012068770020C2
:100D400028773046F8BDCB684A688968206800F08B
:100D50008AFD2168886838438860EEE7CA68496878
:100D6000206800F075FE5021206806E0CA684968D6
:100D7000206800F0A1FE6021206800F07FFDDCE724
:100D8000CA684968206800F063FE40212068F4E7E3
:100D9000226801461046F0E770B51E4C2088010419
:100DA00014D44104A0261C4D002910DA0121C903E6
:100DB000084320800421284600F026FB6080286834
:100DC000016AB14301622868016A016270BD0021B5
:100DD00001206180800320802868026A0F4B1A423C
:100DE00007D1026A9B101A4203D1026852085200CE
:100DF0000260286841622868016AB143016228687C
:100E0000016A20221143016228680168012211430E
:100E1000016070BD000000201800002011110000CA
:100E2000F8B504460020264620360090307F0D4657
:100E300001280ED001203077002A0CD0042A19D0C6
:100E4000082A2AD00C2A4ED0009000203077009833
:100E5000F8BD0220F8BDEB6806CD083D206800F023
:100E600009FE206882690C218A43826120688169B9
:100E7000AA680FE0EB6806CD083D206800F02FFE61
:100E8000206881690322920291438161206881690F
:100E9000AA68120211438161D7E788CD28792168B9
:100EA0008446086AFF22013290430862C8690A6AD0
:100EB000800880003843F027B84367463F073F0E5D
:100EC00007430520400282430A20034018021043D2
:100ED000CF6108622068C1690C229143C16120681A
:100EE000C1692A682CE02B6820689E466F682B7BBE
:100EF000016ABC460122120391430162C169026A80
:100F000003273F02B94367463F020F430F210903FE
:100F10008F431907090C052339435B039A43734632
:100F20000A273B401B031343C16103622068C26967
:100F3000032189028A43C2612068C169AA6812023A
:100F40001143C16181E770B5040005D02546203505
:100F5000687F002802D006E0012070BD00202877BD
:100F6000204600F014F802206877211D206800F068
:100F700031FC01204034A071A877E87720706070C0
:100F8000A070E070207160716877002070BD7047BC
:100F900070B503460446002520334030002908D0B0
:100FA000042909D008290AD046784279012E0BD1AC
:100FB00008E09E7F8278F9E7DE7FC278F6E7067860
:100FC0000279F3E7012A01D0012070BD0222002935
:100FD00009D004290ED0082912D0427042710C2980
:100FE0002BD0012527E09A7782702068C3681343CD
:100FF000C3600CE0DA77C2702068C268042304E0A2
:10100000027002712068C26808231A43C26001227C
:10101000206800F01BFC0B4A20680121904202D09E
:10102000094A904204D182685207520F062A02D020
:1010300002680A430260284670BD2068C268102317
:10104000E3E70000002C01400004004070B50446B6
:10105000006801690025C9438907002915DBC168BB
:10106000C943890711D4E91E016101202077206856
:1010700080698007204602D0FFF78EFE04E000F072
:10108000C7F8204600F052F9257720680169C94366
:10109000490717D4C168C943490713D40421C94378
:1010A000016102202077206880698005800F20463A
:1010B00002D0FFF771FE04E000F0AAF8204600F02D
:1010C00035F9257720680169C943090716D4C16835
:1010D000C943090712D40821C943016104202077BC
:1010E0002068C0698007204602D0FFF755FE04E063
:1010F00000F08EF8204600F019F925772068016984
:10110000C943C90617D4C168C943C90613D41021FD
:10111000C9430161082020772068C0698005800FDD
:10112000204602D0FFF738FE04E000F071F82046B8
:1011300000F0FCF8257720680169C943C90708D188
:10114000C168C943C90704D1891E0161204600F066
:101150003DF920680169C943090609D4C168C9433A
:10116000090605D48021C94301612046FFF7FEFC32
:1011700020680169C943490609D4C168C9434906C1
:1011800005D44021C9430161204600F053F920688D
:101190000169C943890609D4C168C943890605D4D0
:1011A0002021C94301612046FFF7E1FC70BD00002A
:1011B00030B587B0044614216846FFF72EF812496F
:1011C000206888421DD11148426949130A4342618F
:1011D00040690925084005904020009000200290B9
:1011E000039001200224ED060490019469462846EC
:1011F000FFF754F880200090694602942846FFF7D4
:101200004DF807B030BD000000040040001002405F
:101210007047F8B5064604462036307F00270D4655
:1012200001280ED001203077002A0CD0042A1BD0D0
:10123000082A2FD00C2A3ED00127002030773846CC
:10124000F8BD0220F8BD206800F020FB206881690D
:101250000822114381612068826904218A438261E6
:10126000206881692A6912E0206800F04BFB206841
:1012700082690121C9020A438261206881690122D1
:10128000920291438161206881692A6912021143A7
:101290008161D2E7206800F06FFB2068C1690822F5
:1012A0001143C1612068C26904218A43C261206878
:1012B000C1692A6912E0206800F09AFB2068C169C0
:1012C0000122D2021143C1612068C2690121890251
:1012D0008A43C2612068C1692A6912021143C1614F
:1012E000ABE770B5040005D025462035687F00289F
:1012F00002D006E0012070BD00202877204600F0D3
:1013000014F802206877211D206800F063FA01209C
:101310004034A071A877E87720706070A070E0700A
:10132000207160716877002070BD704770470000C1
:1013300010B504460222203000290AD004290DD01D
:101340002046403008290ED04378012B10D00120D0
:1013500010BD837F012BFAD182770AE0C37F012B76
:10136000F5D1C27705E00378012BF0D1027000E0DF
:1013700042700122206800F069FA10492068884212
:1013800005D00F4A904202D00E4A904204D1426CDE
:101390000123DB031A43426420680122884202D001
:1013A0000949884204D181684907490F062902D0BA
:1013B000016811430160002010BD0000002C0140B5
:1013C00000440140004801400004004000680C490E
:1013D000884210D10B49088802040CD442040AD573
:1013E000012382049B04DA4206D1DA1010430880FC
:1013F0000020C04348807047401C088070470000B0
:10140000000400400000002002460020002908D00F
:10141000042909D008290AD00C2901D11068006CD0
:1014200070471068406B70471068806B7047106899
:10143000C06B7047704710B5040003D0A06F002840
:1014400002D007E0012010BD002174200155204684
:1014500000F026F82420A0672068016849084900A8
:101460000160204600F0ECFB0128ECD0606A002807
:1014700002D0204600F04DFB206841680122D202D4
:10148000914341602068816808229143816020680F
:101490000168012211430160204600F09FFB10BD4E
:1014A00010B586B0044614216846FEF7B6FE124910
:1014B000206888421ED111488269012189030A43AC
:1014C000826182690A4005924269C9000A43426109
:1014D0004069084005900C200090022001900020F7
:1014E0000290032003900120049009206946C00661
:1014F000FEF7D4FE06B010BD0038014000100240D7
:10150000FFB50446806F83B017460D4620285ED194
:10151000002D0AD0002F08D0A168C001814207D158
:101520002069002804D1E80702D0012007B0F0BDEF
:10153000204660300090007D012848D000980121AD
:1015400001750020802108512120A067FEF786FF49
:10155000264640360190378277820120A168000339
:10156000814202D12069002805D02F46002500992C
:101570000020087511E00027F9E7002280212046AD
:1015800000F0ECFB002815D1002F15D02168387829
:1015900008857F1C708A401E7082708A019B00281B
:1015A00006980090E9D100224021204600F0D6FBA9
:1015B000002808D00320B9E728882168C005C00D9D
:1015C0000885AD1CE6E72020A0670020AEE70220DA
:1015D000ACE7FEE710B586B014216846FEF71DFEA5
:1015E00011484269012149040A43426142690A40A3
:1015F0000592426949000A43426140690B4C084028
:101600000590002202212046FEF722FF02200090D2
:101610000021012002910391019069462046FEF7C6
:101620003DFE06B010BD000000100240000400485E
:1016300010B592B000240B940C940D940E940F945A
:101640001C2168461094FEF7E8FD2D480794089485
:1016500009942A490A9401602F2184604160294934
:101660000461C16080218161FFF7AAFA002801D0DE
:10167000FEF700FE012000030B900BA92048FFF7A6
:101680001DFB002801D0FEF7F5FD1D48FFF729FEE0
:10169000002801D0FEF7EEFD1948FFF754FC0028A2
:1016A00001D0FEF7E7FD0F940FA915481094FFF73E
:1016B0005FFA002801D0FEF7DDFD60200090019464
:1016C00002940022694604940D48FFF7A2FD002809
:1016D00001D0FEF7CFFD0120089007940994042261
:1016E00007A90A940648FFF79BFB002801D0FEF7E4
:1016F000C1FD0348FFF75CFD12B010BD00040040BF
:1017000018000020FFFF000010B50C480A490160D6
:10171000E1214902416000218160C1600161816174
:10172000C1610C22016242614162FFF784FE002820
:1017300001D0FEF79FFD10BD003801406000002081
:10174000FEE77047704710B5FEF78EFE10BD70B50E
:1017500094B030216846FEF760FD00240E94139487
:1017600010200994022504900D940F9405201294E2
:1017700001260095C0040C94109403960A901194CD
:1017800008950B946846FFF715F8002801D072B64B
:10179000FEE707200C900E9401210D950F940CA8E4
:1017A000FEF734FF002801D072B6FEE710A81096AD
:1017B0001294FEF7B7FE002801D072B6FEE714B00F
:1017C00070BD704710B50248FFF740FC10BD000027
:1017D0001800002070B50268174B184E984201D0CF
:1017E000B04203D17024A2434C682243144C154DDF
:1017F000984208D0B04206D0134EB04203D0A04267
:1018000001D0A84204D103263602B243CE68324347
:101810008026B2434E69324302608A68C2620A6817
:101820008262984203D0A04201D0A84201D1096946
:1018300001630121416170BD002C014000040040A2
:1018400000440140004801400020004010B5CB0694
:10185000DB0E0121046A99408C430462016A9A40BC
:101860001143016210BD30B58468FF252D021B02B3
:101870001343AC430B432343836030BD8268702322
:101880009A430A4307210A4382607047F0B5026A0F
:10189000520852000262056A436882697024A243BA
:1018A00092080C6892001443022295438A68134EF2
:1018B0002A43114DA84204D0B04202D0104FB84282
:1018C00006D10827BA43CF681743042297433A4604
:1018D000A84204D0B04202D0094DA84206D1032547
:1018E0002D02AB434D691D438B692B4343608461DB
:1018F000496841630262F0BD002C01400044014090
:101900000048014070B5026A10239A430262046ADB
:101910004368826973252D02AA430D682D02154381
:10192000202294438A6812012243104CA04208D11D
:101930001446CA688026B443120122434024A243BD
:1019400005E00B4CA04202D00A4CA04208D103246F
:10195000A402A3434C69A4001C438B699B0023434E
:101960004360856149688163026270BD002C01405B
:10197000004401400048014070B5026AFF23013372
:101980009A430262046A4368C2697025AA439208B6
:101990000D68920015430122520294438A68120294
:1019A0002243104CA04207D1C414A243CC682402A5
:1019B00022430615B24305E00B4CA04202D00B4C6B
:1019C000A04208D103242403A3434C6924011C43EF
:1019D0008B691B0123434360C5614968C16302628F
:1019E00070BD0000002C014000440140004801404F
:1019F00030B5026A01231B039A430262056A4268FA
:101A0000C36973242402A3430C6824021C430123EA
:101A10005B039D438B681B032B430A4DA84205D0F3
:101A2000094DA84202D0094DA84205D10125AD03B8
:101A3000AA434D69AD012A434260C461496801640B
:101A4000036230BD002C01400044014000480140C9
:101A500030B5036A046A6408640004628469F0258E
:101A6000AC43120122430A24A3430B438261036265
:101A700030BD000070B5046A6408640004628469C3
:101A8000056A0B4EB04202D00A4EB04202D1A40801
:101A9000A40000E001221443F02294431A07120E1E
:101AA0000A2322439D43194029438261016270BD8C
:101AB000002C01400004004030B5036A1024A34309
:101AC00003628469036A0F252D031203AC4322438A
:101AD000A024A343090119438261016230BD70B59E
:101AE000046A1025AC4304628569046A0326360241
:101AF000B54312022A430F252D031B071B0CAA43D3
:101B00001343A022090194431140214383610162E0
:101B100070BD10B5818CC90707D001684A680123E0
:101B20005B049A43836A1A434A60818C890707D50C
:101B300001684A6801231B049A43C36A1A434A6036
:101B4000818C490707D501684A6801239B049A43A1
:101B5000036B1A434A60818C090707D501684A68FC
:101B60000123DB039A43436B1A434A60818CC90605
:101B700007D50268916801231B039943836B1943BE
:101B80009160818C890607D501688A6801235B030F
:101B90009A43C36B1A438A60818C490612D5036845
:101BA0005A6801210905046C8A4322435A60026C79
:101BB0008A4207D10268516803235B059943436C4D
:101BC00019435160818C090607D501684A680123D1
:101BD000DB04806C9A4302434A6010BDF8B50446AA
:101BE000002680300660FEF739FC05462068006854
:101BF000124F000709D501212B4600224905204636
:101C0000009700F0ABF800280DD12068006840076D
:101C10000BD501212B46002289052046009700F0B4
:101C20009DF8002801D00320F8BD2020A067E067C0
:101C30002666603426750020F8BD0000FFFFFF0116
:101C400070B5044680682169E2690843616900252E
:101C50001143084321680A683C4B1A4002430A605A
:101C600021684868032212039043E26810434860E9
:101C7000A169206A084321688A680B231B029A43E2
:101C800002438A603248006B8007800F16D001281B
:101C900018D0022818D0032812D010210120E3699F
:101CA000C0032C4A2C4E83422BD100290ED002298E
:101CB0000FD004290FD008293FD110E00021EDE713
:101CC0000221EBE70421E9E70821E7E7FEF722FD1F
:101CD00003E0104603E0FEF72DFD002831D06168D7
:101CE00040004A088018FEF7FDF980B2014610391D
:101CF000B14222D81849491C01400007400F08434F
:101D00001DE0002906D0022907D0042907D00829A0
:101D100013D108E0FEF7FEFC03E0104603E0FEF7F7
:101D200009FD00280DD061684A081018FEF7DAF99D
:101D300080B201461039B14201D9012501E0216884
:101D4000C86000206066A066284670BDF369FFFF8A
:101D50000010024000127A00EFFF0000FFB581B0D2
:101D600005461746044660350A9E55E0701C53D060
:101D7000FEF774FB0499401AB04230D8002E2ED0E2
:101D800020680168490747D5C069C043000543D4AE
:101D900001202168C0020862EFF31080012181F365
:101DA000108821680B68FF22A13293430B6080F3F7
:101DB0001088EFF31080012181F3108821688A6870
:101DC000520852008A6080F310882020A067E067E4
:101DD0008034206000202875032005B0F0BDEFF3AB
:101DE0001080012181F3108821680B68FF22A13245
:101DF00093430B6080F31088EFF31080012181F38F
:101E0000108821688A68520852008A6080F310881E
:101E10002020A067E067DDE72068C1690298884359
:101E200004D00020B842A1D00020D6E70120F9E775
:101E30000FB410B503A9044B044A029800F052F8FD
:101E400010BC08BC04B01847192100081400002079
:101E5000F8B5040C8BB2264682B25E430D0C1046D8
:101E6000370C5843360480190021794116466E43D9
:101E7000370C36048019794126466E438919F8BD1E
:101E80008307FF22DB0E9A408907090E994000283C
:101E900008DB830809489B001B1818689043084317
:101EA000186070470007000F0838830804489B003B
:101EB0001B18D86990430843D861704700E400E0DC
:101EC00000ED00E002E008C8121F08C1002AFAD1A4
:101ED00070477047002001E001C1121F002AFBD1AA
:101EE00070470000FFB58FB00F460446002606E09D
:101EF00025280AD0129A11999047641C761C2078E4
:101F00000028F5D1304613B0F0BD00250121814AEB
:101F1000009500E00543641C23780846203B984068
:101F20001042F7D120782E2815D10420054360787F
:101F3000641C2A280AD101CF641C00900BE0009990
:101F40000A22514330394018641C00902078014621
:101F500030390929F3D920786C280ED004DC4C28BC
:101F600013D06A2812D104E074280ED07A280DD13B
:101F70000BE001204005054307E0012109056278D7
:101F80000D43824201D16D18641C641C20786928BD
:101F900043D006DC0028B5D063280BD0642804D1D8
:101FA0003BE073280FD075285DD0129A11999047A5
:101FB000761CACE03878694608720020487202A8A6
:101FC0000190012003E0386801900020C0433F1DCC
:101FD00069070CD5002500E06D1C00998D420FDAD1
:101FE0008542F9DB0199495D0029F5D108E000251A
:101FF00000E06D1C8542FCDB0199495D0029F8D1A8
:10200000761907E0019801990078491C0191129A0C
:10201000119990476D1EF5D279E0002001900A21B8
:102020006802400F0E91022809D001CFC117002984
:102030000ADA0A460021404291412D2207E0FF1DA5
:10204000FF08FF0003CFF2E72A0504D52B226B46D9
:102050001A72012203E0EA070ED02022F7E70C9261
:102060000BAA0B9218E00A200E9000216802400F84
:102070000191022802D001CF0022F0E7FF1DFF08E6
:10208000FF0003CFF8E7019B0E9AFEF741F80B9B88
:102090005B1E30320B931A7002460A43F3D10B9841
:1020A00003A9081A20300190680701D5009801E0C3
:1020B000012000900199884201DD401A00E00020D3
:1020C0000025009006E002A8129A405D1199904701
:1020D0006D1C761C0C988542F5DB04E0129A3020CA
:1020E00011999047761C0099481E00900029F5DC54
:1020F00008E00B980B990078491C0B91129A1199E2
:102100009047761C0199481E01900029F1DC641C5F
:10211000F5E600000928010013B5044B01226946C9
:102120000348FFF7EDF900981CBD0000FFFF000019
:1021300060000020FEF7A0F9FFF709FBFFF74AFA5D
:10214000FFF776FAFFF7E0FA17491648096848637F
:1021500004211548FEF71CFF00211348FFF7E8F89B
:102160001148FEF787FD114F114C124E0025022138
:102170003846FEF765F9208801040ED58004800CEE
:10218000C10F0D4A0023FDF7F3FF32888218694121
:102190000B460AA0FFF74CFE25807D20C000FEF70D
:1021A0006BF8E4E7FF7F00001800002000040048FF
:1021B0000000002002000020FFFF0000686967683F
:1021C0003A256C6C64207573200D0A000000000035
:1021D00000000000010203040607080900000000D7
:1021E000010203040422000800000020180000007F
:1021F000C41E00081C22000818000020D0040000A3
:10220000D41E0008000000000100000004000000CF
:0C2210000000000000127A000000000036
:04000005080000B13E
:00000001FF
